{"abi":[{"type":"constructor","inputs":[{"name":"_owner","type":"address","internalType":"address"}],"stateMutability":"nonpayable"},{"type":"function","name":"ANCHOR_FEE","inputs":[],"outputs":[{"name":"","type":"uint256","internalType":"uint256"}],"stateMutability":"view"},{"type":"function","name":"addReport","inputs":[{"name":"_id","type":"uint256","internalType":"uint256"},{"name":"_res","type":"string","internalType":"string"},{"name":"_tech","type":"string","internalType":"string"},{"name":"_pat","type":"address","internalType":"address"}],"outputs":[],"stateMutability":"payable"},{"type":"function","name":"owner","inputs":[],"outputs":[{"name":"","type":"address","internalType":"address"}],"stateMutability":"view"},{"type":"function","name":"renounceOwnership","inputs":[],"outputs":[],"stateMutability":"nonpayable"},{"type":"function","name":"transferOwnership","inputs":[{"name":"newOwner","type":"address","internalType":"address"}],"outputs":[],"stateMutability":"nonpayable"},{"type":"event","name":"OwnershipTransferred","inputs":[{"name":"previousOwner","type":"address","indexed":true,"internalType":"address"},{"name":"newOwner","type":"address","indexed":true,"internalType":"address"}],"anonymous":false},{"type":"event","name":"ReportAnchored","inputs":[{"name":"id","type":"uint256","indexed":true,"internalType":"uint256"},{"name":"patient","type":"address","indexed":true,"internalType":"address"},{"name":"tech","type":"string","indexed":false,"internalType":"string"},{"name":"time","type":"uint256","indexed":false,"internalType":"uint256"}],"anonymous":false},{"type":"error","name":"OwnableInvalidOwner","inputs":[{"name":"owner","type":"address","internalType":"address"}]},{"type":"error","name":"OwnableUnauthorizedAccount","inputs":[{"name":"account","type":"address","internalType":"address"}]}],"bytecode":{"object":"0x6080346100b957601f61071e38819003918201601f19168301916001600160401b038311848410176100bd578084926020946040528339810103126100b957516001600160a01b0390818116908190036100b95780156100a1575f80546001600160a01b03198116831782556040519316907f8be0079c531659141344cd1fd0a4f28419497f9722a3daafe3b4186f6b6457e09080a361064c90816100d28239f35b604051631e4fbdf760e01b81525f6004820152602490fd5b5f80fd5b634e487b7160e01b5f52604160045260245ffdfe6040608081526004361015610012575f80fd5b5f3560e01c80634dc47bd61461017d578063715018a6146101265780638da5cb5b146100ff578063986851e3146100e15763f2fde38b14610051575f80fd5b346100dd5760203660031901126100dd576001600160a01b0360043581811692908390036100dd576100816105eb565b82156100c757505f54826bffffffffffffffffffffffff60a01b8216175f55167f8be0079c531659141344cd1fd0a4f28419497f9722a3daafe3b4186f6b6457e05f80a3005b51631e4fbdf760e01b81525f6004820152602490fd5b5f80fd5b50346100dd575f3660031901126100dd57602090516305f5e1008152f35b50346100dd575f3660031901126100dd575f5490516001600160a01b039091168152602090f35b346100dd575f3660031901126100dd5761013e6105eb565b5f80546001600160a01b0319811682556001600160a01b03167f8be0079c531659141344cd1fd0a4f28419497f9722a3daafe3b4186f6b6457e08280a3005b5060803660031901126100dd5760043560243567ffffffffffffffff81116100dd576101ad903690600401610589565b60443567ffffffffffffffff81116100dd576101cd903690600401610589565b6064356001600160a01b0381169491908590036100dd576101ec6105eb565b6305f5e1003410610558578151926080840184811067ffffffffffffffff82111761047757835283528060208401524282840152606092856060820152845f526001602052825f20815180519067ffffffffffffffff821161047757825490600182811c9216801561054e575b60208310146104595781601f8493116104fe575b50602090601f8311600114610496575f9261048b575b50508160011b915f199060031b1c19161781555b60018101602083015180519067ffffffffffffffff8211610477578254600181811c9116801561046d575b602082101461045957601f8111610414575b50602090601f83116001146103ad576003949392915f91836103a2575b50508160011b915f1990861b1c19161790555b8483015160028201550190606060018060a01b03910151166bffffffffffffffffffffffff60a01b825416179055815192828452815180938501525f5b83811061038d5750505090606081835f837f83cc53165b2b3fdda0870c13039033f50c08000bd46881053b660ec400380f4a9684010152426020830152601f80199101168101030190a3005b80602080928501015183828801015201610341565b015190505f806102f1565b90601f19831691845f5260205f20925f5b8181106103fc5750916001939185600398979694106103e5575b505050811b019055610304565b01515f1983881b60f8161c191690555f80806103d8565b929360206001819287860151815501950193016103be565b835f5260205f20601f840160051c8101916020851061044f575b601f0160051c01905b81811061044457506102d4565b5f8155600101610437565b909150819061042e565b634e487b7160e01b5f52602260045260245ffd5b90607f16906102c2565b634e487b7160e01b5f52604160045260245ffd5b015190505f80610283565b9250835f5260205f20905f935b601f19841685106104e3576001945083601f198116106104cb575b505050811b018155610297565b01515f1960f88460031b161c191690555f80806104be565b818101518355602094850194600190930192909101906104a3565b909150835f5260205f20601f840160051c81019160208510610544575b90601f859493920160051c01905b818110610536575061026d565b5f8155849350600101610529565b909150819061051b565b91607f1691610259565b815162461bcd60e51b815260206004820152600a6024820152692830bc901890242120a960b11b6044820152606490fd5b81601f820112156100dd5780359067ffffffffffffffff928383116104775760405193601f8401601f19908116603f011685019081118582101761047757604052828452602083830101116100dd57815f926020809301838601378301015290565b5f546001600160a01b031633036105fe57565b60405163118cdaa760e01b8152336004820152602490fdfea2646970667358221220ee82a2dea5ea0804a9d43ae2b44d86f25f74cfdbe5cbaaaf53777e5aeb15ccaf64736f6c63430008170033","linkReferences":{}},"methodIdentifiers":{"ANCHOR_FEE()":"986851e3","addReport(uint256,string,string,address)":"4dc47bd6","owner()":"8da5cb5b","renounceOwnership()":"715018a6","transferOwnership(address)":"f2fde38b"},"id":0}