{"abi":[{"type":"constructor","inputs":[{"name":"_factoryAdmin","type":"address","internalType":"address"},{"name":"_localDirector","type":"address","internalType":"address"},{"name":"_tokenID","type":"address","internalType":"address"}],"stateMutability":"nonpayable"},{"type":"receive","stateMutability":"payable"},{"type":"function","name":"DEFAULT_ADMIN_ROLE","inputs":[],"outputs":[{"name":"","type":"bytes32","internalType":"bytes32"}],"stateMutability":"view"},{"type":"function","name":"FACTORY_ADMIN_ROLE","inputs":[],"outputs":[{"name":"","type":"bytes32","internalType":"bytes32"}],"stateMutability":"view"},{"type":"function","name":"LAB_DIRECTOR_ROLE","inputs":[],"outputs":[{"name":"","type":"bytes32","internalType":"bytes32"}],"stateMutability":"view"},{"type":"function","name":"addReport","inputs":[{"name":"_id","type":"uint256","internalType":"uint256"},{"name":"_res","type":"string","internalType":"string"},{"name":"_tech","type":"string","internalType":"string"},{"name":"_pat","type":"address","internalType":"address"}],"outputs":[],"stateMutability":"payable"},{"type":"function","name":"agentPermissionToken","inputs":[],"outputs":[{"name":"","type":"address","internalType":"address"}],"stateMutability":"view"},{"type":"function","name":"anchorFee","inputs":[],"outputs":[{"name":"","type":"uint256","internalType":"uint256"}],"stateMutability":"view"},{"type":"function","name":"authorizedAgents","inputs":[{"name":"","type":"address","internalType":"address"}],"outputs":[{"name":"","type":"bool","internalType":"bool"}],"stateMutability":"view"},{"type":"function","name":"automationEnabled","inputs":[],"outputs":[{"name":"","type":"bool","internalType":"bool"}],"stateMutability":"view"},{"type":"function","name":"getReport","inputs":[{"name":"_id","type":"uint256","internalType":"uint256"}],"outputs":[{"name":"","type":"tuple","internalType":"struct LabRegistry.LabReport","components":[{"name":"results","type":"string","internalType":"string"},{"name":"technician","type":"string","internalType":"string"},{"name":"timestamp","type":"uint256","internalType":"uint256"},{"name":"patientAddress","type":"address","internalType":"address"}]}],"stateMutability":"view"},{"type":"function","name":"getRoleAdmin","inputs":[{"name":"role","type":"bytes32","internalType":"bytes32"}],"outputs":[{"name":"","type":"bytes32","internalType":"bytes32"}],"stateMutability":"view"},{"type":"function","name":"grantRole","inputs":[{"name":"role","type":"bytes32","internalType":"bytes32"},{"name":"account","type":"address","internalType":"address"}],"outputs":[],"stateMutability":"nonpayable"},{"type":"function","name":"hasRole","inputs":[{"name":"role","type":"bytes32","internalType":"bytes32"},{"name":"account","type":"address","internalType":"address"}],"outputs":[{"name":"","type":"bool","internalType":"bool"}],"stateMutability":"view"},{"type":"function","name":"pause","inputs":[],"outputs":[],"stateMutability":"nonpayable"},{"type":"function","name":"paused","inputs":[],"outputs":[{"name":"","type":"bool","internalType":"bool"}],"stateMutability":"view"},{"type":"function","name":"renounceRole","inputs":[{"name":"role","type":"bytes32","internalType":"bytes32"},{"name":"callerConfirmation","type":"address","internalType":"address"}],"outputs":[],"stateMutability":"nonpayable"},{"type":"function","name":"revokeRole","inputs":[{"name":"role","type":"bytes32","internalType":"bytes32"},{"name":"account","type":"address","internalType":"address"}],"outputs":[],"stateMutability":"nonpayable"},{"type":"function","name":"setAgentStatus","inputs":[{"name":"_agent","type":"address","internalType":"address"},{"name":"_status","type":"bool","internalType":"bool"}],"outputs":[],"stateMutability":"nonpayable"},{"type":"function","name":"setAnchorFee","inputs":[{"name":"_newFee","type":"uint256","internalType":"uint256"}],"outputs":[],"stateMutability":"nonpayable"},{"type":"function","name":"setAutomation","inputs":[{"name":"_status","type":"bool","internalType":"bool"}],"outputs":[],"stateMutability":"nonpayable"},{"type":"function","name":"supportsInterface","inputs":[{"name":"interfaceId","type":"bytes4","internalType":"bytes4"}],"outputs":[{"name":"","type":"bool","internalType":"bool"}],"stateMutability":"view"},{"type":"function","name":"unpause","inputs":[],"outputs":[],"stateMutability":"nonpayable"},{"type":"function","name":"withdraw","inputs":[],"outputs":[],"stateMutability":"nonpayable"},{"type":"event","name":"AgentStatusChanged","inputs":[{"name":"agent","type":"address","indexed":true,"internalType":"address"},{"name":"status","type":"bool","indexed":false,"internalType":"bool"}],"anonymous":false},{"type":"event","name":"FeeUpdated","inputs":[{"name":"newFee","type":"uint256","indexed":false,"internalType":"uint256"}],"anonymous":false},{"type":"event","name":"Paused","inputs":[{"name":"account","type":"address","indexed":false,"internalType":"address"}],"anonymous":false},{"type":"event","name":"ReportAnchored","inputs":[{"name":"id","type":"uint256","indexed":true,"internalType":"uint256"},{"name":"patient","type":"address","indexed":true,"internalType":"address"},{"name":"tech","type":"string","indexed":false,"internalType":"string"},{"name":"time","type":"uint256","indexed":false,"internalType":"uint256"}],"anonymous":false},{"type":"event","name":"RoleAdminChanged","inputs":[{"name":"role","type":"bytes32","indexed":true,"internalType":"bytes32"},{"name":"previousAdminRole","type":"bytes32","indexed":true,"internalType":"bytes32"},{"name":"newAdminRole","type":"bytes32","indexed":true,"internalType":"bytes32"}],"anonymous":false},{"type":"event","name":"RoleGranted","inputs":[{"name":"role","type":"bytes32","indexed":true,"internalType":"bytes32"},{"name":"account","type":"address","indexed":true,"internalType":"address"},{"name":"sender","type":"address","indexed":true,"internalType":"address"}],"anonymous":false},{"type":"event","name":"RoleRevoked","inputs":[{"name":"role","type":"bytes32","indexed":true,"internalType":"bytes32"},{"name":"account","type":"address","indexed":true,"internalType":"address"},{"name":"sender","type":"address","indexed":true,"internalType":"address"}],"anonymous":false},{"type":"event","name":"Unpaused","inputs":[{"name":"account","type":"address","indexed":false,"internalType":"address"}],"anonymous":false},{"type":"error","name":"AccessControlBadConfirmation","inputs":[]},{"type":"error","name":"AccessControlUnauthorizedAccount","inputs":[{"name":"account","type":"address","internalType":"address"},{"name":"neededRole","type":"bytes32","internalType":"bytes32"}]},{"type":"error","name":"EnforcedPause","inputs":[]},{"type":"error","name":"ExpectedPause","inputs":[]}],"bytecode":{"object":"0x6080346200012557601f6200144938819003918201601f19168301916001600160401b03831184841017620001295780849260609460405283398101031262000125576200009862000051826200013d565b91620000916200007260406200006a602085016200013d565b93016200013d565b93670de0b6b3a76400006002556200008a8162000152565b50620001c2565b5062000250565b505f80516020620013e983398151915290815f525f602052600160405f200180545f8051602062001409833981519152809255604051937fbd79b86ffe0ab8e8776151514217cd7cacd52c909f66475c3af44e129f0b00ff5f80a460018054610100600160a81b03191660089290921b610100600160a81b03169190911790556110f09081620002d98239f35b5f80fd5b634e487b7160e01b5f52604160045260245ffd5b51906001600160a01b03821682036200012557565b6001600160a01b03165f8181525f8051602062001429833981519152602052604090205460ff16620001bd575f8181525f805160206200142983398151915260205260408120805460ff191660011790553391905f80516020620013c98339815191528180a4600190565b505f90565b6001600160a01b03165f8181527f40d6054e7c1e32abf36e71c717b2201c6fb50ee4639813ce060d4f8ffbb78bdd60205260409020545f8051602062001409833981519152919060ff166200024a57815f525f60205260405f20815f5260205260405f20600160ff1982541617905533915f80516020620013c98339815191525f80a4600190565b50505f90565b6001600160a01b03165f8181527f1f2aa208554f956f1d5608849d3df9f37ee2b0f95bb642aeb1937af8b8e7609260205260409020545f80516020620013e9833981519152919060ff166200024a57815f525f60205260405f20815f5260205260405f20600160ff1982541617905533915f80516020620013c98339815191525f80a460019056fe608080604052600436101561001c575b50361561001a575f80fd5b005b5f3560e01c90816301ffc9a714610c8e5750806323cf4ce914610c42578063248a9ca314610c165780632f2ff15d14610bda5780633360cf5e14610ba057806336568abe14610b595780633ccfd60b14610b215780633f4ba83a14610ab857806349ee8e2214610a7e5780634dc47bd6146105285780634e7f9b19146103935780635c975abb146103715780638456cb5914610319578063919acbe6146102fc57806391d14854146102b4578063a217fddf1461029a578063d547741f1461025e578063d966a5941461023c578063efd76065146101ff578063f665f6b4146101d3578063f95b620d146101565763ff443c761461011a575f61000f565b346101525760203660031901126101525760043580151580910361015257610140610eb9565b60ff8019600354169116176003555f80f35b5f80fd5b346101525760403660031901126101525761016f610cf7565b602435908115158092036101525760207f87a2f5d6264ebbda5bf1278472c7cd45819bf76a99da8075ea9768d2e827050f916101a9610eb9565b60018060a01b031692835f526004825260405f2060ff1981541660ff8316179055604051908152a2005b34610152575f3660031901126101525760015460405160089190911c6001600160a01b03168152602090f35b34610152576020366003190112610152576001600160a01b03610220610cf7565b165f526004602052602060ff60405f2054166040519015158152f35b34610152575f36600319011261015257602060ff600354166040519015158152f35b346101525760403660031901126101525761001a60043561027d610ce1565b90805f525f602052610295600160405f200154610f8d565b61102a565b34610152575f3660031901126101525760206040515f8152f35b34610152576040366003190112610152576102cd610ce1565b6004355f525f60205260405f209060018060a01b03165f52602052602060ff60405f2054166040519015158152f35b34610152575f366003190112610152576020600254604051908152f35b34610152575f36600319011261015257610331610f32565b61033961109c565b600160ff19815416176001557f62e78cea01bee320cd4e420270b5ea74000d11b0c9f74754ebdbfc544b05a2586020604051338152a1005b34610152575f36600319011261015257602060ff600154166040519015158152f35b3461015257602080600319360112610152575f60606040516103b481610d0d565b818152818482015282604082015201526004355f526005815260405f20604051906103de82610d0d565b6103e781610e17565b825260036103f760018301610e17565b848401908152600283015490604085019382855260018060a01b039384910154169160608601928352156104f0577f25cbe7a69baa88683f56e5699a7cf5d955b04a08324d7549d9c4ef478e7009325f525f865260405f20335f52865260ff60405f20541615806104e3575b6104ae5761049c90610489608097604051988998828a52519189015260a0880190610da1565b9051868203601f19016040880152610da1565b92516060850152511660808301520390f35b60405162461bcd60e51b815260048101879052600d60248201526c1058d8d95cdcc811195b9a5959609a1b6044820152606490fd5b5082825116331415610463565b60405162461bcd60e51b815260048101879052601060248201526f14995c1bdc9d081b9bdd08199bdd5b9960821b6044820152606490fd5b60803660031901126101525760043560243567ffffffffffffffff811161015257610557903690600401610d4b565b9060443567ffffffffffffffff811161015257610578903690600401610d4b565b6064356001600160a01b03811693908490036101525761059661109c565b825f526005602052600260405f200154610a4557335f8181527f1f2aa208554f956f1d5608849d3df9f37ee2b0f95bb642aeb1937af8b8e7609260209081526040918290205460015492516370a0823160e01b8152600481019490945260ff16918390602490829060081c6001600160a01b03165afa918215610a3a575f92610a06575b5060ff6003541691826109ee575b826109e4575b501590816109db575b50610986576002543410610949576040519061065282610d0d565b8152816020820152426040820152836060820152825f52600560205260405f20815180519067ffffffffffffffff82116108755781906106928454610ddf565b601f81116108fc575b50602090601f8311600114610894575f92610889575b50508160011b915f199060031b1c19161781555b60018101602083015180519067ffffffffffffffff8211610875576106ea8354610ddf565b601f8111610830575b50602090601f83116001146107a35792826003937f83cc53165b2b3fdda0870c13039033f50c08000bd46881053b660ec400380f4a98969361078d98965f92610798575b50508160011b915f1990861b1c19161790555b604083015160028201550190606060018060a01b03910151166bffffffffffffffffffffffff60a01b825416179055604051918291604083526040830190610da1565b4260208301520390a3005b015190508b80610737565b90601f19831691845f5260205f20925f5b8181106108185750937f83cc53165b2b3fdda0870c13039033f50c08000bd46881053b660ec400380f4a98969361078d9896936001938360039810610801575b505050811b01905561074a565b01515f1983881b60f8161c191690558b80806107f4565b929360206001819287860151815501950193016107b4565b835f5260205f20601f840160051c8101916020851061086b575b601f0160051c01905b81811061086057506106f3565b5f8155600101610853565b909150819061084a565b634e487b7160e01b5f52604160045260245ffd5b0151905087806106b1565b9250835f5260205f20905f935b601f19841685106108e1576001945083601f198116106108c9575b505050811b0181556106c5565b01515f1960f88460031b161c191690558780806108bc565b818101518355602094850194600190930192909101906108a1565b909150835f5260205f20601f840160051c810160208510610942575b90849392915b601f830160051c8201811061093457505061069b565b5f815585945060010161091e565b5080610918565b60405162461bcd60e51b8152602060048201526015602482015274496e73756666696369656e7420484241522046656560581b6044820152606490fd5b60405162461bcd60e51b815260206004820152602760248201527f556e617574686f72697a65643a204d697373696e6720526f6c65206f7220485460448201526629902a37b5b2b760c91b6064820152608490fd5b90501585610637565b151591508661062e565b9150335f52600460205260ff60405f20541691610628565b9091506020813d602011610a32575b81610a2260209383610d29565b810103126101525751908661061a565b3d9150610a15565b6040513d5f823e3d90fd5b60405162461bcd60e51b8152602060048201526011602482015270494420616c72656164792065786973747360781b6044820152606490fd5b34610152575f3660031901126101525760206040517f25cbe7a69baa88683f56e5699a7cf5d955b04a08324d7549d9c4ef478e7009328152f35b34610152575f36600319011261015257610ad0610f32565b60015460ff811615610b0f5760ff19166001557f5db9ee0a495bf2e6ff9c91a7834c1ba4fdd244a5e8aa4e537bd38aeae4b073aa6020604051338152a1005b604051638dfc202b60e01b8152600490fd5b34610152575f36600319011261015257610b39610eb9565b5f80808047818115610b50575b3390f115610a3a57005b506108fc610b46565b3461015257604036600319011261015257610b72610ce1565b336001600160a01b03821603610b8e5761001a9060043561102a565b60405163334bd91960e11b8152600490fd5b34610152575f3660031901126101525760206040517fbd5d72ac35ae1e83aa0625c57eddda63fbb064a87fca99dfdd7ce027384ae2828152f35b346101525760403660031901126101525761001a600435610bf9610ce1565b90805f525f602052610c11600160405f200154610f8d565b610fae565b34610152576020366003190112610152576004355f525f6020526020600160405f200154604051908152f35b34610152576020366003190112610152577f8c4d35e54a3f2ef1134138fd8ea3daee6a3c89e10d2665996babdf70261e2c766020600435610c81610eb9565b80600255604051908152a1005b34610152576020366003190112610152576004359063ffffffff60e01b821680920361015257602091637965db0b60e01b8114908115610cd0575b5015158152f35b6301ffc9a760e01b14905083610cc9565b602435906001600160a01b038216820361015257565b600435906001600160a01b038216820361015257565b6080810190811067ffffffffffffffff82111761087557604052565b90601f8019910116810190811067ffffffffffffffff82111761087557604052565b81601f820112156101525780359067ffffffffffffffff82116108755760405192610d80601f8401601f191660200185610d29565b8284526020838301011161015257815f926020809301838601378301015290565b91908251928382525f5b848110610dcb575050825f602080949584010152601f8019910116010190565b602081830181015184830182015201610dab565b90600182811c92168015610e0d575b6020831014610df957565b634e487b7160e01b5f52602260045260245ffd5b91607f1691610dee565b9060405191825f8254610e2981610ddf565b908184526020946001916001811690815f14610e975750600114610e59575b505050610e5792500383610d29565b565b5f90815285812095935091905b818310610e7f575050610e5793508201015f8080610e48565b85548884018501529485019487945091830191610e66565b92505050610e5794925060ff191682840152151560051b8201015f8080610e48565b335f9081527f1f2aa208554f956f1d5608849d3df9f37ee2b0f95bb642aeb1937af8b8e7609260205260409020547f25cbe7a69baa88683f56e5699a7cf5d955b04a08324d7549d9c4ef478e7009329060ff1615610f145750565b6044906040519063e2517d3f60e01b82523360048301526024820152fd5b335f9081527f40d6054e7c1e32abf36e71c717b2201c6fb50ee4639813ce060d4f8ffbb78bdd60205260409020547fbd5d72ac35ae1e83aa0625c57eddda63fbb064a87fca99dfdd7ce027384ae2829060ff1615610f145750565b805f525f60205260405f20335f5260205260ff60405f20541615610f145750565b90815f525f60205260405f209060018060a01b031690815f5260205260ff60405f205416155f1461102457815f525f60205260405f20815f5260205260405f20600160ff1982541617905533917f2f8788117e7eff1d82e926ec794901d17c78024a50270940304540a733656f0d5f80a4600190565b50505f90565b90815f525f60205260405f209060018060a01b031690815f5260205260ff60405f2054165f1461102457815f525f60205260405f20815f5260205260405f2060ff19815416905533917ff6391f5c32d9c69d2a47ea670b442974b53935d1edc7fd64eb21e047a839171b5f80a4600190565b60ff600154166110a857565b60405163d93c066560e01b8152600490fdfea26469706673582212205bbf337b73afba258847ab8ea6b4ffb1b66051a239e501adaebd1f8c0c24ba5464736f6c634300081700332f8788117e7eff1d82e926ec794901d17c78024a50270940304540a733656f0d25cbe7a69baa88683f56e5699a7cf5d955b04a08324d7549d9c4ef478e700932bd5d72ac35ae1e83aa0625c57eddda63fbb064a87fca99dfdd7ce027384ae282ad3228b676f7d3cd4284a5443f17f1962b36e491b30a40b2405849e597ba5fb5","linkReferences":{}},"methodIdentifiers":{"DEFAULT_ADMIN_ROLE()":"a217fddf","FACTORY_ADMIN_ROLE()":"3360cf5e","LAB_DIRECTOR_ROLE()":"49ee8e22","addReport(uint256,string,string,address)":"4dc47bd6","agentPermissionToken()":"f665f6b4","anchorFee()":"919acbe6","authorizedAgents(address)":"efd76065","automationEnabled()":"d966a594","getReport(uint256)":"4e7f9b19","getRoleAdmin(bytes32)":"248a9ca3","grantRole(bytes32,address)":"2f2ff15d","hasRole(bytes32,address)":"91d14854","pause()":"8456cb59","paused()":"5c975abb","renounceRole(bytes32,address)":"36568abe","revokeRole(bytes32,address)":"d547741f","setAgentStatus(address,bool)":"f95b620d","setAnchorFee(uint256)":"23cf4ce9","setAutomation(bool)":"ff443c76","supportsInterface(bytes4)":"01ffc9a7","unpause()":"3f4ba83a","withdraw()":"3ccfd60b"},"id":0}